S0200000666F75725F656C656D656E745F6D6561737572656D656E742E73726563FA
S1130000782A00204D1B0000E11B0000E11B0000CA
S113001000000000000000000000000000000000DC
S1130020000000000000000000000000E11B0000D0
S11300300000000000000000E11B0000E11B0000C4
S1130040E11B0000E11B0000E11B0000E11B0000BC
S1130050E11B0000E11B0000E11B0000E11B0000AC
S1130060E11B0000E11B0000E11B0000E11B00009C
S1130070E11B0000E11B0000E11B0000E11B00008C
S1130080E11B0000E11B0000E11B0000E11B00007C
S1130090E11B0000E11B0000E11B0000E11B00006C
S11300A0E11B0000E11B0000E11B0000E11B00005C
S11300B00000000010B5064C2378002B07D1054B37
S11300C0002B02D0044800E000BF0123237010BDC0
S11300D0C00900200000000054BD0000084B10B50A
S11300E0002B03D00749084800E000BF0748036815
S11300F0002B00D110BD064B002BFBD09847F9E72D
S113010000000000C409002054BD000054BD0000DC
S113011000000000B0B584B000AF78600F23FC1875
S11301207B681800204B9847030023700F23FB18AB
S11301301B785BB2002B2ED10F23FC187B681800B0
S11301401A4B9847030023700F23FB181B785BB2EC
S1130150002B20D179680F23FC187B680122D02062
S1130160134DA847030023700F23FB181B785BB2C1
S1130170002B10D17B681B78612B08D10F23FC184E
S11301807B6818000B4B98470300237003E00F2390
S1130190FB18FD221A700F23FB181B785BB21800A2
S11301A0BD4604B0B0BDC046031B0000ED03000013
S11301B0B9010000250C0000B0B586B000AFB960ED
S11301C011007B600F23FB18021C1A700C23FB1810
S11301D00A1C1A801723FC187B681800254B9847C3
S11301E0030023701723FB181B785BB2002B39D153
S11301F07B689B78002B1AD11723FC187A680F238D
S1130200FB181B78110018001B4B98470300237040
S11302101723FB181B785BB2002B08D10F23FB18A4
S11302200F22BA181278802149420A431A707B6857
S11302309C6C7B6858780C23FB181D88BA680F23C4
S1130240FB1819782B00A047030019007B6854227F
S113025099547B6854229B56002B03D01723FB1818
S1130260FE221A701723FB181B785BB21800BD46D8
S113027006B0B0BD031B0000E5180000B0B590B097
S113028000AFF860B9603B60FB1D1A701423FB18C3
S1130290180028231A000021514B98473F23FC18CB
S11302A03B6818004F4B9847030023703F23FB180B
S11302B01B785BB2002B00D08AE0FB1D1B78002B5F
S11302C000D17FE0FB1D1B78132B00D97AE03C237F
S11302D0FB1800221A8045E03B689B78002B1FD155
S11302E03C23FB181B88FA68D3181B783F22BC18E0
S11302F03A68110018003C4B9847030023703C23D4
S1130300FB181B885B003C22BA181288F9688A180B
S113031012787F210A40D1B21422BA18D1540CE0C9
S11303203C23FB181B885B003C22BA181288F9682E
S11303308A1811781422BA18D1543C23FB181B884C
S11303405B0001333C22BA181288B9688A18117804
S11303501422BA18D1543C23FB181A883C23FB18E6
S113036001321A80FB1D1B789BB23C22BA181288FA
S11303709A42B1D33F23FB181B785BB2002B26D1E2
S11303803B68DC6C3B6858781423FB181978FB1D18
S11303901B789BB2DB189BB2013B9DB21423FB1864
S11303A05A1C2B00A047030019003B68542299549F
S11303B03B6854229B56002B09D03F23FB18FE2296
S11303C01A7004E03F23FB18FC221A7000E0C046B8
S11303D03F23FB181B785BB21800BD4610B0B0BDBC
S11303E0BD340000031B0000E5180000B0B584B064
S11303F000AF78600E23FB18E0221A700D23FB185F
S1130400B6221A700F23FC187B681800224B9847F9
S1130410030023700F23FB181B785BB2002B33D12E
S11304207B689B78002B07D10F23FC187B6818008E
S11304301A4B9847030023700F23FB181B785BB2F9
S1130440002B21D10F23FC187B680D22B9180E2232
S1130450B8180122124DA847030023707B681B6D56
S11304600A2098470F23FB181B785BB2002B0BD193
S11304707B689B78002B07D10F23FC187B6818003E
S1130480064B9847030023700F23FB181B785BB2BD
S11304901800BD4604B0B0BD031B0000F1190000F4
S11304A07D020000B0B588B000AF02003960BB1D0A
S11304B01A801B23FB1800221A701E23FB1800222B
S11304C01A701423FB18180006231A000021E74BA6
S11304D098470C23FB18180006231A000021E34B4D
S11304E098471D23FB183A684421525C1A701F2355
S11304F0FC183B681800DE4B9847030023701F2349
S1130500FB181B785BB2002B00D049E2BB1D1B8893
S11305100822134007D01F23FC183B681800D54B52
S11305209847030023703B684422002199541F23F9
S1130530FB181B785BB2002B07D11F23FC183B6808
S11305401800CD4B984703002370BB1D1B88102255
S1130550134056D03B683B3318001F23FC183B68FC
S113056007220021C54DA847030023701C23FB1854
S113057075221A701F23FB181B785BB2002B0DD158
S11305801F23FC183A681B23F9181C23FB1818783E
S113059013000122BA4DA84703002370BB1D1B881A
S11305A01022134014D01B23FB181B785BB21C22AF
S11305B093435AB23B683B215B5C9B005BB21C21BA
S11305C00B405BB213435BB2DAB21B23FB181A7005
S11305D01E23FB181B781422BA181C2179180978D9
S11305E0D1541E23FB181B781B22BA1811780C2235
S11305F0BA18D1541E23FB181A781E23FB18013293
S11306001A70BB1D1B882022134050D03B683D3319
S113061018001F23FC183B6808220021974DA847A7
S1130620030023701C23FB1870221A701F23FB186D
S11306301B785BB2002B0DD11F23FC183A681B23D7
S1130640F9181C23FB181878130001228C4DA847B5
S1130650030023701B23FB181B785BB2082293430F
S11306605AB23B683D215B5C5BB208210B405BB234
S113067013435BB2DAB21B23FB181A701E23FB1858
S11306801B781422BA181C2179180978D1541E2316
S1130690FB181B781B22BA1811780C22BA18D154F3
S11306A01E23FB181A781E23FB1801321A70BB1D77
S11306B01B88032213406DD03B68393318001F2375
S11306C0FC183B68052200216C4DA84703002370E9
S11306D01C23FB1874221A701F23FB181B785BB2AF
S11306E0002B0DD11F23FC183A681B23F9181C2377
S11306F0FB18187813000122614DA84703002370EA
S1130700BB1D1B880122134011D01B23FB181B782F
S11307105BB21F2213405AB23B6839215B5C5B0118
S11307205BB213435BB2DAB21B23FB181A70BB1D16
S11307301B880222134014D01B23FB181B785BB2C6
S11307401C2293435AB23B683A215B5C9B005BB228
S11307501C210B405BB213435BB2DAB21B23FB18C0
S11307601A701E23FB181B781422BA181C2179183E
S11307700978D1541E23FB181B781B22BA18117850
S11307800C22BA18D1541E23FB181A781E23FB1806
S113079001321A70BB1D1B880422134050D03B68E1
S11307A0383318001F23FC183B6805220021334D01
S11307B0A847030023701C23FB1872221A701F23FE
S11307C0FB181B785BB2002B0DD11F23FC183A6871
S11307D01B23F9181C23FB18187813000122284D39
S11307E0A847030023701B23FB181B785BB2072266
S11307F093435AB23B6838215B5C5BB207210B40E0
S11308005BB213435BB2DAB21B23FB181A701E23CC
S1130810FB181B781422BA181C2179180978D154B2
S11308201E23FB181B781B22BA1811780C22BA1845
S1130830D1541E23FB181A781E23FB1801321A7098
S1130840BB1D1B88C022134000D18EE03B683E33A1
S113085018001F23FC183B6801220021074DA847FC
S1130860030023701F23FB181B780BE0BD3400002A
S1130870031B0000310F0000BD090000691A0000CD
S1130880B90100005BB2002B0BD13B683C3318006C
S11308901F23FC183B680A220021454DA84703008A
S11308A023701C23FB1871221A701F23FB181B785A
S11308B05BB2002B0DD11F23FC183A681B23F918D7
S11308C01C23FB181878130001223A4DA847030093
S11308D02370BB1D1B884022134014D01B23FB181C
S11308E01B785BB2102293435AB23B683E215B5C97
S11308F01B015BB210210B405BB213435BB2DAB253
S11309001B23FB181A70BB1D1B888022134013D0B5
S11309101B23FB181B785BB20F2293435AB23B682C
S11309203C215B5C5BB20F210B405BB213435BB2B7
S1130930DAB21B23FB181A701E23FB181B7814222F
S1130940BA181C2179180978D1541E23FB181B7876
S11309501B22BA1811780C22BA18D1541E23FB1882
S11309601A781E23FB1801321A701F23FB181B78F8
S11309705BB2002B0ED11F23FC183D681E23FB180D
S11309801A780C23F9181423F8182B000A4DA847D9
S1130990030023703B681D22BA18442112785A546C
S11309A01F23FB181B785BB21800BD4608B0B0BD0E
S11309B0691A0000B90100007D020000B0B584B0DE
S11309C000AF78600E23FB1800221A700C23FB186A
S11309D074221A700F23FC187B6818003C4B98474C
S11309E0030023700F23FB181B785BB2002B66D126
S11309F00F23FC187B680D22B91801227420354D91
S1130A00A847030023700F23FB181B785BB2002B4D
S1130A1025D10D23FB181A780E23FB1803210A4055
S1130A201A700E23FB181B78002B18D00D23FB180B
S1130A301B7803229343DAB20D23FB181A700F2399
S1130A40FC187B680D22B9180C22B8180122224D1B
S1130A50A847030023707B681B6D0A2098470E2368
S1130A60FB181B78002BC3D17B6844229B5C002BB2
S1130A7025D00D23FB181B785BB2032293435AB293
S1130A807B6844215B5C5BB203210B405BB2134384
S1130A905BB2DAB20D23FB181A700F23FB181B7814
S1130AA05BB2002B0BD10F23FC187B680D22B91805
S1130AB00C22B8180122084DA847030023700F2305
S1130AC0FB181B785BB21800BD4604B0B0BDC0462D
S1130AD0031B0000B90100007D02000080B586B050
S1130AE000AF786039600823FB182A4A116819603E
S1130AF092889A803B6839229B5C1A000823FB1871
S1130B009B5C7B613B683A229B5C1A000823FB18C0
S1130B109B5C1A007B699B187B613B6838229B5C59
S1130B201A000823FB189B5C1A007B699B187B61E5
S1130B307B69194A53433B613B69184A94466344B1
S1130B403B613B69164A944663443B613B69F53318
S1130B50FF333B613869134BFA2291009847030035
S1130B603B613B6901333B613B699AB27B681A8004
S1130B703B683E229B5C002B08D07B681A883B684C
S1130B8042215B5AD3189AB27B681A80C046BD468C
S1130B9006B080BDB4B50000AB07000074070000C8
S1130BA051090000C529000090B585B000AF7860F8
S1130BB039600F23FC183B681800184B9847030052
S1130BC023700F23FB181B785BB2002B1DD10F235E
S1130BD0FC183A687B6811001800114B9847030011
S1130BE023700F23FB181B785BB2002B0DD17B689D
S1130BF01B785BB2002B04DA3B684522012199542F
S1130C0003E03B684522002199540F23FB181B780D
S1130C105BB21800BD4605B090BDC046031B000082
S1130C20D9160000B0B58EB000AF78600C23FB1865
S1130C30180029231A000021BA4B98470B23FB18EC
S1130C4000221A703723FC187B681800B64B9847AB
S1130C50030023703723FB181B785BB2002B00D0F2
S1130C6057E13723FC187B680C22B9181922892014
S1130C70AE4DA847030023703723FB181B785BB2E3
S1130C80002B0DD13723FC187A680C23FB18193379
S1130C90190013001022E120A44DA847030023707B
S1130CA00C23FB1822229B5C1B021AB20C23FB1898
S1130CB021215B5C1BB213431BB29AB27B68DA82BC
S1130CC00C23FB189B781B021AB20C23FB185B78CD
S1130CD01BB213431AB27B681A830C23FB18DB780C
S1130CE05AB27B689A760C23FB189B791B021AB2C2
S1130CF00C23FB185B791BB213431BB29AB27B68BB
S1130D009A830C23FB181B7A1B021AB20C23FB18C0
S1130D10DB791BB213431AB27B68DA830C23FB180A
S1130D205B7A59B27B68202299540C23FB181B7BF5
S1130D301B021AB20C23FB18DB7A1BB213431AB240
S1130D407B685A840C23FB189B7B1B021AB20C236E
S1130D50FB185B7B1BB213431AB27B689A840C2387
S1130D60FB181B7C59B27B68262299540C23FB1870
S1130D70DB7B59B27B68272299540C23FB181B7D1B
S1130D801B021AB20C23FB18DB7C1BB213431AB2EE
S1130D907B681A850C23FB189B7D1B021AB20C235B
S1130DA0FB185B7D1BB213431AB27B685A850C2374
S1130DB0FB18D97D7B682C2299540C23FB18DB7E0D
S1130DC01B011AB20C23FB189B7E1BB20F210B4094
S1130DD01BB213431BB29AB27B681A810C23FB1813
S1130DE05B7E1B011AB20C23FB189B7E1B09DBB232
S1130DF01BB213431BB29AB27B685A810C23FB18B3
S1130E001B7F5AB27B681A730C23FB185B7F5AB2A0
S1130E107B685A730C23FB189B7F5AB27B689A73C6
S1130E200C23FB18DA7F7B68DA730C23FB1820226F
S1130E309B5C5AB27B681A740C23FB1825229B5CBA
S1130E405AB27B685A740C23FB1824229B5C1B0245
S1130E501AB20C23FB1823215B5C1BB213431AB296
S1130E607B685A820C23FB1826229B5C5AB27B684F
S1130E701A753723FB181B785BB2002B40D137233C
S1130E80FC187B680B22B91801220220274DA847C1
S1130E90030023700B23FB181B781A003023134024
S1130EA000D50F331B11D9B27B68342299543723F0
S1130EB0FB181B785BB2002B22D13723FC187B680C
S1130EC00B22B91801220020184DA84703002370F3
S1130ED00B23FB181B7859B27B68352299543723AE
S1130EE0FB181B785BB2002B0AD13723FC187B68F4
S1130EF00B22B918012204200C4DA84703002370CB
S1130F000B23FB181B785BB21B1159B27B6836228A
S1130F1099543723FB181B785BB21800BD460EB0FA
S1130F20B0BDC046BD340000031B0000B901000081
S1130F30B0B584B000AF78600F23FC187B6818004C
S1130F402C4B9847030023700F23FB181B785BB2CC
S1130F50002B47D10C23FB1800221A800823FB180E
S1130F6000221A807B6844229B5C012B24D10C2331
S1130F70FB185A221A707B6840229B5A7A68110027
S1130F8018001D4B984703001A000823FB181A7019
S1130F900C23FB1864225A707B6842229B5A180067
S1130FA0164B984703001A000823FB185A707B68F5
S1130FB03C220021995403E00F23FB1801221A70EC
S1130FC00F23FB181B785BB2002B0BD10F23FC18EB
S1130FD07B680822B9180C22B8180222084DA847C9
S1130FE0030023700F23FB181B785BB21800BD4667
S1130FF004B0B0BD031B00005915000065160000C5
S11310007D020000F0B591B000AFF861B961FB69F1
S1131010DA10BB69DB8A5B00D31ABB63DB17FB63A3
S1131020BB6918229B5EBB60DB17FB60304EBA6B5A
S1131030FB6BB868F968B04702000B005905D00A89
S113104001433963DB127B63FB6BDB07BA6B540828
S11310501C43FB6B5D10FB6BDB07BA6B52083A61F8
S11310603A691A433A61FB6B5B107B61204E3A6923
S11310707B6920002900B04703000C002205190BEE
S11310800A43BA622313FB62BB699B7E5BB21B01FA
S11310903B60DB177B60164CBA6AFB6A3868796878
S11310A0A04703000C00A204990B0A43BA62A313DD
S11310B0FB623A6BBB6AD3181A00BB691A63BB693B
S11310C01A6B13009B009B1880331A120E231821ED
S11310D08C46BC4463441A800E2318229446BC44B4
S11310E0634400229B5E1800BD4611B0F0BDC046AB
S11310F0F92C000080B586B000AF786039603B6899
S11311001B6B5B104D4A944663443B613B699B10E7
S11311103A6992105343DB123A68262152565343DC
S11311209B10FB603B6824229B5E1A003B6953437F
S11311305B00FA68D318FB60FB689A103B682221B5
S11311405B5E1B04D318FB603B699B103A699210E9
S113115053435B133A682021525652015343DA1029
S11311603B681E215B5E19003B694B435B10D3183F
S11311703B613B699B143B613B69802212029446AC
S113118063443A68928B5343DB133B617B68802250
S11311905203D31A7B61FB681B137A69D31A1A00B2
S11311A0274B53437B617B69264A934207DD264BD9
S11311B039697869984703005B007B6107E07B69C4
S11311C05A00214B39691000984703007B613B6842
S11311D02A229B5E19007B69DB107A69D210534383
S11311E05B134B431B133B617B699B103A682821BB
S11311F0525E53435B13FB607B691B127A691212C4
S113120053437A69121253433A682C21525C534374
S11312105B14BB603A69FB68D218BB68D2183B68A0
S113122027215B56DB01D3181B117A69D3187B6124
S11312307B691800BD4606B080BDC0460006FFFFAE
S1131240350C0000FFFFFF3FD92A0000B0B58AB07B
S113125000AF02003960BB1D1A803B681A6B130093
S11312609B009B1880331B123B62BB1D1A883B6892
S11312701B891B01D41A3B681B7B5BB21A003B6AB7
S11312805A43384B64211000984703005B10E31A5B
S1131290FB613B685B891C003B685B7B5BB21A00AB
S11312A03B6A5A432F4B64211000984703001D00EA
S11312B03B689B7B5BB21A003B6A5A43294B64210F
S11312C01000984703001A003B6A53439A11254BB8
S11312D06421100098470300EB188022D201944641
S11312E0634463439B12BB61FB69BA6953437B61EB
S11312F03B68DB7BDB013B613B681B7C5BB21A0018
S11313003B6A5A43174B64211000984703001A00A4
S11313103B69D3181B113B617B699B137A69921358
S113132053439B12FB603B69FA6853435B10BB60F9
S11313307A69BB68D3189B12FA22920053431B1399
S11313407B627B6A084A934202DD074B7B6204E0BE
S11313507B6A002B01DA00237B627B6A1800BD469E
S11313600AB0B0BDD92A0000A0860100F0B5B7B01C
S113137000AF03003A633622BA1813803523FA18F3
S11313800B1C13704C233022BA18D2186C4B10006B
S1131390190040231A006B4B98470C233022BA18CB
S11313A0D218694B1000190040231A00654B984766
S11313B03A6B3623D356BB61DB17FB61B869F96915
S11313C003000C009A0FA60016439D0003000C00B6
S11313D05B1974415D4900225B18544118002100D7
S11313E03523FB181B784C223024A446BC446244A9
S11313F09B009B583B6100237B61554C3A697B6998
S1131400A04703000C002204190C0A43A021302039
S11314108446BC4461440A602314A42230218C46CF
S1131420BC44624413603623FB181B889BB2BB6028
S11314300023FB60B968FA680B005B0C1000C00362
S1131440F862F86A1843F8620B00DB03BB62FF23FF
S11314501B0601246442B96AFA6AC9186241A023CE
S113146030208446BC4463445C681B685B18544168
S1131470982230218C46BC44624413605460352366
S1131480FB181A780C2330218C46BC446344920028
S1131490D3583B6000237B602D4CA023302294461C
S11314A0BC4463441A685B6838687968A0470300E1
S11314B00C00E205590A0A43902130208446BC44BA
S11314C061440A606312942230218C46BC44624415
S11314D01360982330229446BC4463445C681B68C0
S11314E0E20759083962396A1143396263107B6231
S11314F0902330229446BC4463445C681B68386A79
S1131500796AC0186141982330229446BC446344EC
S11315105C681B680F4D1A002300A84703000C00E9
S11315208C2230218C46BC44624413608C233022CC
S11315309446BC4463441B681800BD4637B0F0BDF4
S1131540BCB5000039340000FCB500003C050000C7
S1131550F92C0000B12C000090B58BB000AF020054
S11315603960BB1D1A80BB1D1A88C8235B009A42D0
S113157003D9BB1DC82252001A803B681B795BB299
S11315801A003B681B7D5BB253431800334BFA22AD
S11315909100984703001B027B623B685B7C5BB253
S11315A0C42292009C183B6812229B5E2C4A9446EB
S11315B06344BA1D12885A4313009B009A18274BA0
S11315C06421100098470300C82292039A18234B01
S11315D00A2110009847030063433B623B6A002BD7
S11315E000DA01335B101A007B6AD318FB613B6895
S11315F034229B5C1A1D194B1100F86998470300AB
S1131600BB613B6835229B561A0013009B019B1853
S11316105B009B1880225202944663447B610F4B0B
S11316207969B86998470300FA3B1A0013001B0153
S11316309B185B003B613B6932331A00074B642102
S11316401000984703001A000F23FB181A700F2389
S1131650FB181B781800BD460BB090BDD92A0000BA
S11316609959020080B584B000AF0200BB1D1A80F6
S11316700F23FB1800221A70BB1D1B88154A9342C6
S113168010D90E23FB18FF221A701BE0BB1DBA1DD4
S1131690128892081A800F23FB180F22BA181278A6
S11316A001321A70BB1D1B883F2BEFD8BB1D1B8852
S11316B0D9B20F23FB181B789B01DAB20E23FB1857
S11316C08A181A700E23FB181B781800BD4604B044
S11316D080BDC046BF0F0000B0B58AB000AF7860CF
S11316E039600823FB1818000F231A000021764BD9
S11316F098472623FB180A221A702723FC183B68F4
S11317001800724B9847030023702723FB181B789B
S11317105BB2002B00D0B8E02723FC183B680822FA
S1131720B9180F221D206A4DA8470300237008230F
S1131730FB181B787F229343DAB27B681A70082364
S1131740FB181B780F221340DAB27B685A70082307
S1131750FB185A787B689A700823FB189B781A0345
S11317600823FB18DB781B0113430822BA181279EB
S11317701209D2B213433B620823FB185B791A03A4
S11317800823FB189B791B0113430822BA18D2794A
S11317901209D2B21343FB610823FB181B7A9BB2D4
S11317A01B0299B20823FB185B7A9AB21A23FB181E
S11317B00A431A800823FB185B7B9BB29B0099B2F7
S11317C00823FB189B7B9B09DBB29AB21823FB18F6
S11317D00A431A800823FB189A7B1723FB180F214E
S11317E00A401A707B681B785AB20823FB189B7B4B
S11317F05BB220210B405BB213435BB2DAB27B686D
S11318001A707B681B785AB20823FB189B7B5BB267
S113181010210B405BB213435BB2DAB27B681A70DF
S11318207B681B785BB2002B2BDA3A68FB691100EA
S11318301800284B984703001A007B689A803A687E
S11318403B6A11001800244B984702007B689A6099
S11318503A681A23FB181B88110018001F4B98477D
S113186002007B68DA603A681723FB18197818239A
S1131870FB181B8818001A4B984702007B681A61F2
S113188010E03B681B6D0A2098472623FB181A7842
S11318902623FB18013A1A702623FB181B78002B09
S11318A000D032E72623FB181B78002B03D1272313
S11318B0FB1802221A702723FB181B785BB218004E
S11318C0BD460AB0B0BDC046BD340000031B0000D5
S11318D0B901000005100000F51000004D120000D1
S11318E06D13000090B585B000AF02003960FB1D98
S11318F01A700F23FC183B6818003C4B98470300F0
S113190023700F23FB181B785BB2002B66D1FB1DE1
S11319101B785BB2002B04DA0E23FB1800221A702A
S113192003E00E23FB1810221A703B68DB780E22AA
S1131930BA1812789A4251D03B680E22BA1812781B
S1131940DA703B689C6C3B6858780D23FA180123C5
S1131950F321A047030019003B68542299543B68C3
S113196054229B56002B03D00F23FB18FE221A701F
S11319700F23FB181B785BB2002B2FD10D23FB1810
S11319801B7810229343DAB20D23FB181A703B68BC
S1131990DB785BB2102213405AB20D23FB181B787C
S11319A05BB213435BB2DAB20D23FB181A703B68C7
S11319B0DC6C3B6858780D23FA1801237321A04787
S11319C0030019003B68542299543B6854229B56E7
S11319D0002B03D00F23FB18FE221A700F23FB18D1
S11319E01B785BB21800BD4605B090BD031B000018
S11319F090B585B000AF78600F23FC187B681800A1
S1131A00184B9847030023700F23FB181B785BB215
S1131A10002B1FD17B689C6C7B6858780E23FA18C6
S1131A200123F321A047030019007B685422995431
S1131A307B6854229B56002B04D00F23FB18FE22F4
S1131A401A7007E00E23FB181B7810221340DAB239
S1131A507B68DA700F23FB181B785BB21800BD4655
S1131A6005B090BD031B000080B586B000AFF860E0
S1131A70080011007B600B23FB18021C1A700A2358
S1131A80FB180A1C1A701723FB1800221A70FB6833
S1131A90002B2AD0FB681B780B22BA1812789A42C2
S1131AA00DD9FB680B22BA1812781A707B6846228B
S1131AB09B5C01221343D9B27B6846229954FB688C
S1131AC01B780A22BA1812789A4212D2FB680A22A8
S1131AD0BA1812781A707B6846229B5C0222134360
S1131AE0D9B27B684622995403E01723FB18FF22DE
S1131AF01A701723FB181B785BB21800BD4606B09A
S1131B0080BD80B584B000AF78607B68002B0BD0BB
S1131B107B689B6C002B07D07B68DB6C002B03D0AD
S1131B207B681B6D002B04D10F23FB18FF221A7056
S1131B3003E00F23FB1800221A700F23FB181B78F5
S1131B405BB21800BD4604B080BD000080B582B011
S1131B5000AF194B7B60194B3B607A683B689A4233
S1131B600CD007E03B681A1D3A607A68111D796051
S1131B7012681A603A68124B9A42F3D3114B3B60D5
S1131B8004E03B681A1D3A6000221A603A680E4B62
S1131B909A42F6D30D4B7B600D4B7A68FF218A4342
S1131BA09A600C4A536880210B4353600A4B984750
S1131BB00A4B9847FEE7C04654BD000000000020D1
S1131BC0C0090020C0090020780A0020000000009D
S1131BD000ED00E000400041F13300001923000053
S1131BE080B500AFFEE7000080B500AF024B034AAA
S1131BF01A60C046BD4680BD0000002000093D00BB
S1131C0080B500AF2D4B40221A602D4B1B6810335A
S1131C101A002B4B1B6810331B7801210B43DBB2DA
S1131C201370274B1B6811331A00254B1B681133A3
S1131C301B7801210B43DBB21370214B1B68123359
S1131C401A001F4B1B6812331B7801210B43DBB2B4
S1131C5013701B4B1B6813331A00194B1B68133387
S1131C601B7801210B43DBB21370164B1B6808333E
S1131C7022221A70134B1B68093322221A70124B4A
S1131C8040221A60114B01221A60C0460F4B1B6898
S1131C9001221340FAD10D4B0D4A1A600D4B8022DC
S1131CA092011A600C4B07221A70084B074A1268FB
S1131CB002210A431A60C046BD4680BDCC180040CC
S1131CC0040000200800002088280040000400428E
S1131CD00C003030040400420C04004280B582B091
S1131CE000AF0200FB1D1A70C0460D4B1B78DBB21F
S1131CF01A0001231340F8D00A4B40221A600A4B01
S1131D00FA1D12781A60C046054B1B78DBB21A0024
S1131D1001231340F8D0C046BD4602B080BDC04682
S1131D2018040042942800402804004280B582B080
S1131D3000AF0200FB1D1A70C0460D4B1B78DBB2CE
S1131D401A0001231340F8D00A4B40221A600A4BB0
S1131D50FA1D12781A60C046054B1B78DBB21A00D4
S1131D6001231340F8D0C046BD4602B080BDC04632
S1131D7018040042982800402804004280B582B02C
S1131D8000AFC046C04600237B6003E0C0467B68CA
S1131D9001337B607B683B2BF8DDC046BD4602B057
S1131DA080BD000080B584B000AF78600B4B9847CD
S1131DB00CE00023FB6003E0C046FB680133FB60DA
S1131DC0FB68C72BF8DD7B68013B7B607B68002BDD
S1131DD0EFDCC046BD4604B080BDC0467D1D00009A
S1131DE080B500AF2820024B9847C046BD4680BD51
S1131DF0A51D000080B582B000AF1C4B98471C4B5A
S1131E00984700237B6007E039201A4B98471A4B08
S1131E1098477B6801337B607B68012BF4DD1E20CF
S1131E20144B9847144B98475520124B9847124B24
S1131E3098476C200F4B98470D4B98477F200D4BCC
S1131E4098470D4B98470C200A4B98470A4B9847E4
S1131E500120084B9847084B98470620054B9847A4
S1131E60054B9847C046BD4602B080BD011C00002A
S1131E70E11D0000DD1C00007D1D000080B584B064
S1131E8000AF254B98478020244B9847244B984714
S1131E900023FB6009E0234AFB68D3181B78180071
S1131EA0214B9847FB680133FB60FB680F2BF2DD85
S1131EB01B4B98479020194B9847194B9847002380
S1131EC0BB6009E0194ABB68D3181B781800164B8D
S1131ED09847BB680133BB60BB680F2BF2DD104B26
S1131EE09847A0200D4B98470D4B984700237B60E3
S1131EF009E00F4A7B68D3181B7818000A4B9847EF
S1131F007B6801337B607B680F2BF2DD044B9847C1
S1131F10C046BD4604B080BD011C0000DD1C0000AD
S1131F207D1D0000140A00202D1D0000280A002039
S1131F303C0A002080B500AF044B044A126880219B
S1131F400A431A60C046BD4680BDC046942800407E
S1131F5080B500AF044B044A126880210A431A601A
S1131F60C046BD4680BDC0469828004080B582B0BA
S1131F7000AF0200FB1D1A70C0460D4B1B78DBB28C
S1131F801A0001231340F8D00A4BFA1D12781A6084
S1131F90C046074B1B78DBB21A0004231340F8D069
S1131FA0044B1B68DBB21800BD4602B080BDC046BE
S1131FB0180400422804004290B585B000AF040024
S1131FC008003A601900FB1D221C1A70BB1D021C7C
S1131FD01A703B1D0A1C1A800D23FB1800221A706C
S1131FE0BB1DBA1D1278802149420A431A70174B4F
S1131FF09847BB1D1B781800154B98470E23FB18F8
S113200000221A8010E00020114B984703001A00A8
S11320103B681A703B6801333B600E23FB181A8837
S11320200E23FB1801321A800E23FA183B1D128866
S11320301B889A42E7D3074B98470D23FB181B785C
S11320405BB21800BD4605B090BDC046351F000008
S11320506D1F0000511F000090B585B000AF040053
S113206008003A601900FB1D221C1A70BB1D021CDB
S11320701A703B1D0A1C1A800D23FB1800221A70CB
S1132080164B9847BB1D1B781800154B98470E2319
S1132090FB1800221A800FE00E23FB181B883A68F5
S11320A0D3181B7818000E4B98470E23FB181A8878
S11320B00E23FB1801321A800E23FA183B1D1288D6
S11320C01B889A42E8D3074B98470D23FB181B78CB
S11320D05BB21800BD4605B090BDC046351F000078
S11320E06D1F0000511F000090B583B000AF504B2E
S11320F040221A604F4B1B6810331A004D4B1B686B
S113210010331B7801210B43DBB21370494B1B685E
S113211011331A00474B1B6811331B7801210B4301
S1132120DBB21370434B1B6812331A00414B1B681C
S113213012331B7801210B43DBB213703D4B1B6838
S113214013331A003B4B1B6813331B7801210B43D9
S1132150DBB21370384B1B68073300221A70374BFD
S11321601B68083322221A70344B1B68093322225D
S11321701A70334B80221A60324B9847324B01223B
S11321801A60C046304B1B6801221340FAD12E4B13
S11321902E4A1A602E4B802292021A602D4B002286
S11321A01A70294B284A126802210A431A60FB1D3F
S11321B060221A703B1DB6221A70BB1D73221A705E
S11321C0FB1C10221A70BB1C00221A70224B1878B8
S11321D001243A1DFB1D19782300204CA0471E4BF7
S11321E018780124BA1CBB1D197823001B4CA04786
S11321F0194B187801247A1DBB1D19782300184C3B
S1132200A047154B18780124FA1CBB1D197823002C
S1132210124CA047104B187801247A1DBB1D197865
S113222023000F4CA047C046BD4603B090BDC04636
S1132230CC180040040000200C00002008000020FE
S113224088280040511F0000000400420C00303078
S1132250040400420C040042DC0900205920000060
S1132260B91F000080B500AF034B00221A60034B76
S11322709847C046BD4680BD04040042511F00007B
S113228080B500AF104B80221A60104B01221A60F7
S1132290C0460E4B1B6801221340FAD10B4B0C4A6B
S11322A01A600C4B802292021A600B4B00221A70A7
S11322B0064B064A126802210A431A60074B9847E4
S11322C0C046BD4680BDC046882800400004004288
S11322D00C003030040400420C040042511F000082
S11322E080B584B000AF78607B68FB600CE00023AD
S11322F0BB6003E0C046BB680133BB60BB68C62B50
S1132300F8D9FB68013BFB60FB68002BEFD1C046AA
S1132310BD4604B080BD0000B0B5A4B004AFF44B1A
S1132320F44A1A60F44BF54A1A60F54BF54A1A6000
S1132330F54BF64A1A60F64B9847F64BE022D20268
S11323401A60F54B802212031A60F44BE02252000B
S11323501A60F34B8022D2021A60F24B9847F24B78
S11323609847F24B9847F24B9847F24B98471C23F7
S113237008229446BC44634400225A701C23082259
S11323809446BC44634400229A701C230822944659
S1132390BC446344E84A9A641C2308229446BC441F
S11323A06344E64ADA641C2308229446BC4463442A
S11323B0E34A1A651C2308229446BC446344192248
S11323C01A71762308229446BC44634400221A708E
S11323D076230822BA18D4181C2308229446BC4435
S11323E063441800D74B9847030023701C2308222A
S11323F09446BC4463443822022199541C23082285
S11324009446BC4463443A22032199541C23082271
S11324109446BC4463443922042199541C23082261
S11324209446BC4463443B22022199541C23082251
S11324309446BC4463443E22012199541C2308223F
S11324409446BC4463444022A021490099521C2371
S113245008229446BC4463444222962199521C2388
S113246008229446BC4463444422012199547523B0
S113247008229446BC446344DF221A707523082260
S11324809446BC4463441B789BB276220821791895
S11324908C181C2208218C46BC446244110018008C
S11324A0A94B98470300237076230822BA18D4183E
S11324B01C2308229446BC4463441800A34B984749
S11324C0030023701C230822BA18D2181A230821E7
S11324D08C46BC446344110018009D4B9847954BAF
S11324E098471A2308229446BC4463441B88180066
S11324F0934B984776230822BA18D4181C23082231
S1132500BA18D2180C23FB1811001800914B9847E5
S1132510030023700C23FB1804229A5E8E4B1000D8
S11325209847021C8D4B8E49101C9847031C1A1C9B
S11325308C4B101C9847386079600C23FB189A6800
S1132540894B10009847021C844B8549101C9847FE
S1132550031C1A1C834B101C984704000D000C2309
S1132560FB18DA68804B10009847021C7B4B7F49AC
S1132570101C9847031C1A1C7A4B101C9847020025
S11325800B007B4902920393009401953A687B689F
S1132590080078498847772308229446BC4463445A
S11325A000221A700C23FB181B781A0020231340F6
S11325B00ED00C23FB181A696F4B110018006D4BD9
S11325C09847772308229446BC44634401221A7036
S11325D06A4B18006A4B98476A4B98471C23082299
S11325E09446BC44634444229B5C012B0DD1762366
S11325F00822BA18D4181C2308229446BC44634405
S11326001800524B9847030023705F4B8022D2027C
S11326101A60454B98470C23FB1804229A5E4E4BD4
S113262010009847021C4D4B4D49101C9847031C41
S11326301A1C4C4B101C984703000C005349544877
S11326401A002300534CA0470C23FB189A68464BEE
S113265010009847021C414B4149101C9847031C29
S11326601A1C404B101C984703000C004A494B4865
S11326701A002300474CA047494B9847FA23DB0034
S113268018002F4B98470C23FB18DA68364B1000C0
S11326909847021C314B3549101C9847031C1A1CDF
S11326A0304B101C984703000C003E4938481A0070
S11326B02300384CA047772308229446BC44634443
S11326C01B78002B07D00C23FB181A693649334BAF
S11326D01800304B9847324B9847FA23DB00180018
S11326E0174B98470E4B8022D2021A60F7E6C04679
S11326F0040000204028004008000020302800404A
S11327000C000020C028004010000020B028004029
S1132710E91B0000082800400428004088280040E5
S113272018280040AD270000F51D0000E920000036
S11327306522000081220000B91F0000592000001A
S1132740E122000015010000A5040000BD090000FD
S1132750DD0A0000A90B000015300000852D0000E3
S11327600000C84241310000B530000000007A4446
S113277040B600005135000068B6000078B600008D
S113278015360000511F0000142800407CB60000DC
S1132790140A0020293600008CB60000280A002004
S11327A07D1E000098B60000A4B6000080B500AFFE
S11327B0224B40221A60224B214A126801210A430B
S11327C01A60C0461F4B1B6801221340FAD11C4BF0
S11327D01D4A1A601D4BC02292021A601C4B3422FF
S11327E01A80174B164A126802210A431A60C0461F
S11327F0144B1B6802221340FAD1164B1B68083392
S11328001A00144B1B6808331B7801210B43DBB2FD
S11328101370104B1B6809331A000E4B1B680933E5
S11328201B7801210B43DBB213700B4B1B68043381
S113283033221A70C046BD4680BDC046D818004039
S1132840001000421C1000420460104004100042BA
S11328500C1000420C0000201000002080B582B053
S113286000AF0200FB1D1A70C046084B1B78DBB298
S11328701A0001231340F8D0054AFB1D1B789BB2B4
S11328801380C046BD4602B080BDC0461810004249
S11328902810004280B500AFC046074B1B78DBB25E
S11328A01A0004231340F8D0044B1B889BB2DBB2FC
S11328B01800BD4680BDC0461810004228100042D2
S11328C080B586B000AFF860B9607A607B687B61E0
S11328D009E0BB685A1CBA601B781800064B98477D
S11328E07B68013B7B607B68002BF2DC7B69180012
S11328F0BD4606B080BDC0465D28000080B584B0EA
S113290000AFF860B9607A600E4B98470300DAB202
S1132910BB681A70BB681B780D2B08D1BB680A22F0
S11329201A700949FB6801221800084B9847B968D6
S1132930FB6801221800054B984701231800BD4687
S113294004B080BD95280000B0B60000C128000086
S113295080B582B000AF786000231800BD4602B095
S113296080BD000080B582B000AF786039603B68FC
S11329701033034A1A6000231800BD4602B080BD1C
S1132980B681000080B582B000AF786001231800E2
S1132990BD4602B080BD80B584B000AFF860B960B8
S11329A07A6000231800BD4604B080BD80B582B0B3
S11329B000AF7860024B1800BD4602B080BDC0462F
S11329C000600020002243088B4274D303098B4229
S11329D05FD3030A8B4244D3030B8B4228D3030CEB
S11329E08B420DD3FF22090212BA030C8B4202D38D
S11329F01212090265D0030B8B4219D300E0090AB5
S1132A00C30B8B4201D3CB03C01A5241830B8B42BD
S1132A1001D38B03C01A5241430B8B4201D34B03A6
S1132A20C01A5241030B8B4201D30B03C01A52410B
S1132A30C30A8B4201D3CB02C01A5241830A8B4290
S1132A4001D38B02C01A5241430A8B4201D34B0279
S1132A50C01A5241030A8B4201D30B02C01A5241DD
S1132A60CDD2C3098B4201D3CB01C01A5241830991
S1132A708B4201D38B01C01A524143098B4201D3CB
S1132A804B01C01A524103098B4201D30B01C01AF6
S1132A905241C3088B4201D3CB00C01A5241830870
S1132AA08B4201D38B00C01A524143088B4201D39D
S1132AB04B00C01A5241411A00D2014652411046FD
S1132AC07047FFE701B5002000F0F0F802BDC046F2
S1132AD00029F7D076E7704703460B437FD40022E2
S1132AE043088B4274D303098B425FD3030A8B429E
S1132AF044D3030B8B4228D3030C8B420DD3FF2208
S1132B00090212BA030C8B4202D31212090265D0D5
S1132B10030B8B4219D300E0090AC30B8B4201D388
S1132B20CB03C01A5241830B8B4201D38B03C01ACF
S1132B305241430B8B4201D34B03C01A5241030B46
S1132B408B4201D30B03C01A5241C30A8B4201D3F7
S1132B50CB02C01A5241830A8B4201D38B02C01AA2
S1132B605241430A8B4201D34B02C01A5241030A19
S1132B708B4201D30B02C01A5241CDD2C3098B42FE
S1132B8001D3CB01C01A524183098B4201D38B017B
S1132B90C01A524143098B4201D34B01C01A52411E
S1132BA003098B4201D30B01C01A5241C3088B4263
S1132BB001D3CB00C01A524183088B4201D38B004E
S1132BC0C01A524143088B4201D34B00C01A5241F0
S1132BD0411A00D201465241104670475DE0CA0FC7
S1132BE000D04942031000D34042534000229C4687
S1132BF003098B422DD3030A8B4212D3FC22890191
S1132C0012BA030A8B420CD3890192118B4208D366
S1132C10890192118B4204D389013AD0921100E0C8
S1132C208909C3098B4201D3CB01C01A52418309DC
S1132C308B4201D38B01C01A524143098B4201D309
S1132C404B01C01A524103098B4201D30B01C01A34
S1132C505241C3088B4201D3CB00C01A52418308AE
S1132C608B4201D38B00C01A5241D9D243088B4204
S1132C7001D34B00C01A5241411A00D201466346A7
S1132C8052415B10104601D34042002B00D549420B
S1132C90704763465B1000D3404201B5002000F04A
S1132CA005F802BD0029F8D016E770477047C04602
S1132CB0002B15D1002A13D1002906DB01DC0028E2
S1132CC006D00020C043410802E08021090600200C
S1132CD007B4024801A14018029003BDD1FFFFFFD1
S1132CE003B4684601B5029800F030F8019B9E4693
S1132CF002B00CBC7047C046F0B5CE46474615043A
S1132D002D0C2E0080B50704140C3F0C9946030CBF
S1132D107E435D43674363437F19340CE4199C4647
S1132D20A54203D980235B029846C4444B465143D1
S1132D3043433604360C250C24046544A41959185D
S1132D40491920000CBC90469946F0BDF0B583B0FB
S1132D5016001F000090019100F062FA04000D00BB
S1132D6002000B0030003900FFF7C6FF009A019BF8
S1132D70121A8B41089920000A604B60290003B0A5
S1132D80F0BDC046F0B557464E46DE464546E0B572
S1132D9044024300C60F83B00F1C640A1B0EB246E4
S1132DA053D0FF2B27D08022E400D20414437F2287
S1132DB0524290469844002399469B467D027800EF
S1132DC0FB0F6D0A000E009324D0FF2846D0802309
S1132DD00021ED00DB041D437F384746381A4F4677
S1132DE00F43BF00B9463300009A874F53404A4609
S1132DF0BA5801939746002C4ED108239946F733CD
S1132E009846FD3B9B467D027800FB0F6D0A000E41
S1132E100093DAD1002D26D1002001213300009A3D
S1132E207A4F53404246101A4A460A439200BA580F
S1132E301D009746009B2C009A468B465B46022B4E
S1132E4031D15346FF21002438E0002C17D104234C
S1132E5099460023984601339B46AFE7FF20002D97
S1132E600BD10221DAE7280000F0BCF9431F9D4092
S1132E7076235B42181A0021AFE70321ADE7200057
S1132E8000F0B0F9431F9C4076235B421B1A98461E
S1132E90002399469B4691E70C239946F3339846C1
S1132EA0FC3B9B468AE7032B00D1A5E05546012B4A
S1132EB000D081E00123002100242B406402C905D5
S1132EC0600ADB070843184303B03CBC90469946AC
S1132ED0A246AB46F0BD80240023E403FF21EDE7C6
S1132EE0FF210024EAE70123591A1B2966DD019A10
S1132EF0134000210024E1E78023DB031C4238D087
S1132F001D4251D01C436402640A3300FF21D5E7FB
S1132F1063016C01A3423BD21B2600210138012529
S1132F201F0049005B00002F01DB9C4201D81B1BE2
S1132F302943013E002EF3D11C00631E9C410C4327
S1132F4001007F310029CEDD630704D00F23234025
S1132F50042B00D00434230103D501002C4B803111
S1132F601C40FE290DDD0123019AFF21134000249A
S1132F70A4E78023DB031C436402640A3300FF21BB
S1132F809CE70123019AA401640AC9B2134095E79E
S1132F901B1B1A260121C2E7009B8B469A4600247C
S1132FA04CE76302E5D500258024E4032C43640246
S1132FB0640A009BFF2181E70195C1E723002020DB
S1132FC0CB40411A8C40611E8C411C43630704D0E2
S1132FD00F232340042B00D00434630105D50123BF
S1132FE0019A01211340002468E70123019AA401F6
S1132FF0640A1340002161E78023DB031C4364025D
S1133000640A5346FF2159E7B4B60000F4B6000041
S1133010FFFFFFF770B5002830D0C317C4185C4019
S1133020C50F200000F0DEF89E231B1A962B0DDC42
S11330309622D21A94402A006402640ADBB2640223
S1133040DB05600AD2071843104370BD992B19DCC5
S11330509922D21A002A29DD94402200144C1440EB
S1133060510704D00F210A40042A00D0043462011D
S113307013D4A401640ADBB22A00E0E7002200238F
S11330800024DCE705222100121AD140B922D21A09
S11330909440621E94410C43DAE7054B2A001C401D
S11330A09F23A4011B1A640ADBB2C8E72200D5E7F8
S11330B0FFFFFFFB10B5041E27D000F093F89E23FA
S11330C01B1A962B0ADC9622D21A94406402640AD4
S11330D0DBB26402DB05600A184310BD992B17DCD0
S11330E09922D21A002A27DD94402200134C14405E
S11330F0510704D00F210A40042A00D0043462018D
S113310012D4A401640ADBB2E3E700230024E0E75D
S1133110B9222100D21A91400A00511E8A41052188
S1133120091ACC401443DBE7044B1C409F23A40141
S11331301B1A640ADBB2CCE72200D7E7FFFFFFFBD0
S11331404100090E4B1C70B5DBB24602750AC40F70
S1133150012B14DDE0239B006D07360BCB180021F7
S11331600A0D280012051C4D32435B052A405B08FA
S113317013435B00E4075B082343190070BD002977
S113318014D1002D1ED0280000F02CF80A281CDCD5
S11331900B232A001B1ADA40030015339D400F4B02
S11331A012031B1A5B05160B5B0DD8E7002D06D026
S11331B0320B802636036D071643094BCFE7084BC5
S11331C00026CCE700230026C9E703002A000B3BB6
S11331D09A400025E3E7C046FFFF0F808903000003
S11331E0FF0700001C2101231B04984201D3000C9B
S11331F010391B0A984201D3000A08391B09984266
S113320001D30009043902A2105C40187047C0467B
S1133210040302020101010100000000000000009B
S1133220F0B54E465746DE464546E0B5060000205A
S11332300F0083B019008146002F00DA8CE00029CA
S113324000DA80E034003D0092469846BB4269D8DB
S113325066D04146504600F0BFF88346390030003E
S113326000F0BAF85B461B1A9C46203B9B4600D5EF
S113327087E05146584681400B00514660468140E4
S11332800A00BB4200D972E06ED034003D005946BA
S1133290A41A9D41002900DA8AE0002100200126B9
S11332A00090019159468E400196614601268E4058
S11332B061460096002961D0D90756080E435F087D
S11332C06146012200230CE0AF4201D1A6420AD894
S11332D0A41BBD4124196D410139A4185D41002985
S11332E006D0AF42F0D9013924196D410029F8D133
S11332F05B460098019900196941002B4DDB2E00B3
S1133300DE4063462C00DC405B46002B5BDB340074
S11333109C4023006446A6403200801A994103E091
S1133320B24296D9002000214B46002B04D0030062
S11333300C0000215842A14103B03CBC9046994680
S1133340A246AB46F0BD4946C94310008946190060
S1133350002342428B4175E734003D0001380027C9
S11333606642AF4181466AE7B14200D88DE7002149
S1133370002000900191614600299DD10098019997
S1133380D2E7624640462023514690409B1AD940DA
S11333900300009100990B436FE7624620239B1AB8
S11333A02A009A40260013006246D6401E43A8E72E
S11333B0614620260127761A00200021F74000905C
S11333C00191019771E762462023350094409B1ACE
S11333D0DD4023002B439DE710B5002903D1FFF7FF
S11333E001FF203002E0081CFFF7FCFE10BDC046C0
S11333F070B50D4E0D4D0024AD1BAD1005D0A300CE
S1133400F35801349847A542F9D108F08DFC084ED1
S1133410084D0024AD1BAD1005D0A300F3580134B2
S11334209847A542F9D170BD34BD000034BD0000F9
S113343034BD00003CBD0000F0B505000F2A2FD9B3
S11334400B0003439B0734D116000C000300103E0D
S1133450350901352D01451927681F6067685F60CC
S1133460A7689F60E7681034DF6010339D42F3D192
S11334700F239E431036851989191340032B1AD93B
S11334801E1F0023B4080134A400CF58EF500433A6
S1133490A342FAD10324A643331D2240C918ED18D0
S11334A0002A05D00023CC5CEC5401339342FAD1BA
S11334B0F0BD0500F6E71A00F2E7C046F0B5830751
S11334C043D0541E002A3FD0CEB20200032502E0AE
S11334D01A00013C38D3531C16702B42F8D1032C2C
S11334E02AD9FF220A40150215432A0415430F2C3A
S11334F014D927001A00103F3E09013636019E19DF
S1133500156055609560D56010329642F8D10F224F
S113351097431037DB191440032C0DD91A00271FC9
S1133520BE080136B6009E1920C2B242FCD1032265
S113353097430437DB191440002C05D0C9B21C1979
S1133540197001339C42FBD1F0BD14000300C6E79F
S11335500FB400B5064983B004AB086804CB816896
S1133560019301F0B9FB03B008BC04B01847C0468E
S11335701400002030B5040089B008000D0000F0EC
S113358075F804AB214A01930223069201220293A7
S1133590A36B05900130049507920390A568002B56
S11335A02FD06B6EDB0724D40C23EA5E91B28B051B
S11335B01CD580239B01194205D11343AB816A6E4C
S11335C0134B13406B66200001AA290004F0AAFAE9
S11335D0441EA04144420A206B6E0443DB0702D41C
S11335E0AB899B0509D5200009B030BDA86D04F056
S11335F053FC0C23EA5E91B2DBE7A86D04F04EFCA9
S1133600F1E7200004F006F9CBE7C04638B7000024
S1133610FFDFFFFF10B5034B01001868FFF7AAFF97
S113362010BDC046140000200EB410B59DB002A910
S1133630029008610B48822488604861012040425E
S11336401FABC881084804CBA400006801938C8197
S113365000F03EF80023029A13701DB010BC08BCA1
S113366003B01847FFFFFF7F1400002010B5830745
S113367025D00378002B24D00300032102E01A781C
S1133680002A1AD001330B42F9D119680E4A0F4CA3
S11336908A188A43224206D1043319680A4A8A18CE
S11336A08A432242F8D01A001B78002B03D001323F
S11336B011780029FBD1101A10BD181AFCE7030079
S11336C0E3E70020F8E7C046FFFEFEFE808080802E
S11336D0F0B5DE46454657464E46E0B5C3B00D004C
S11336E0069114000F93099004F0C4FB03681800BA
S11336F01993FFF7BBFF1890AB891B0605D52B69FF
S11337000793002B01D101F063F832AB259300231A
S1133710A34625AFBB607B6014931693159332AE1A
S113372017931A930A935B461B785C46002B1CD0B4
S1133730252B02D119E0252B03D001342378002B4B
S1133740F9D15B46E51A10D05B463360BB687560FF
S11337505B19BB607B6801337B60072B2EDC08366A
S11337600A9B9C46AC4463460A932378002B2ED0D4
S1133770631C9B46002316AAD37701225242924629
S1133780002200210B922032914620326378884631
S1133790002000249446594601311A00203A582A40
S11337A000D9FDE2D74D9200AA5897460B9B0F9281
S11337B05B420B9304231C430B78EDE73A00069914
S11337C0099805F09FFC002809D132AEC8E7BB6810
S11337D0002B04D03A000699099805F093FC069B47
S11337E09B895B0601D501F0CEF80A9843B03CBC36
S11337F090469946A246AB46F0BD01220B7890460E
S11338002B20C9E74B1C9B460B782A2B01D101F0D6
S11338101BFA1A000021303A8A465946092ABCD8B4
S11338200300110050465A469A46A34683001B18CB
S113383014785B0058182100531C30391A000929E8
S1133840F4D9524619008246230010005C46A4E7CE
S113385080231C430B789FE78B4641461293002933
S113386001D001F01FFA10231C430F9AA30601D5BF
S113387000F088FEE30601D500F080FD630601D464
S113388000F07CFD0021535E0C930432DB170D9392
S11338900F9201D500F086FE0C990D9A080016AB24
S11338A0DB7F10439846020001235146013100D1C9
S11338B0FFE08021200088430890002A00D0FCE02B
S11338C05246002A01D000F02CFC002B01D000F05D
S11338D004FD012032AB20400E90119308D0272321
S11338E0302128AAD15416AA94464833634411932C
S11338F053460E9A0793924500DA079200231393D6
S11339004346002B02D0079B013307930223089AF6
S11339101A40914602D0079B023307938423089AE6
S11339201A40109200D04DE20B9B079A9C1A002C6F
S113393000DC47E27449BA687B688846102C1FDDB6
S113394031001025464603E0103C0831102C15DDEB
S1133950103201330E604D60BA607B60072BF3DDDB
S11339603A000699099805F0CDFB002800D036E707
S1133970103CBA687B6832A9102CE9DCB0460E0012
S1133980414674600133A4183160BC607B60072B2E
S113399001DD00F0A8FC16ABDB7F0836984612E286
S11339A08B4641461293002901D001F077F9072292
S11339B00F9B07339343013294469C4462460F9213
S11339C01A6816925B6801221593159B169D5B007D
S11339D05B08984652424D4B2800414607F01CFDB7
S11339E0002801D000F0FDFD0122484B524228007E
S11339F0414605F039FF002801D000F0F2FD002215
S1133A0000231698159905F025FF002801D001F030
S1133A1022F816ABDB7F9846129B472B01DD00F0A2
S1133A20C7FE3B4B119380239C437D3B07930E932E
S1133A30002308949A46139362E70022303B150052
S1133A401A000300079408002C009B46A3001C19CD
S1133A500378640014191A000131303A0800092A65
S1133A60F4D90B945846079C97E608231C430B781B
S1133A7092E6129310231C438B46A30600D57BE1E8
S1133A80E30601D500F07EFC630601D400F07AFC65
S1133A900F9B1A880C92002204330F9300230D927B
S1133AA00C9A002116A8C17788465146013100D0EE
S1133AB0FFE6002A00D135E30894012B00D1E5E3A9
S1133AC0022B00D062E3179C0F20A146B44632AB10
S1133AD019000C9A0D9B04004D4614402C5D1E07E2
S1133AE0150901392E430C701C09230034003200DF
S1133AF01C43F0D10C920D9332AB5B1A11916646C4
S1133B000E93F5E63CB70000E4B80000FFFFEF7F3A
S1133B10A0B80000129310231C438B46A30600D5C3
S1133B2011E1E30601D500F031FC630601D400F095
S1133B302DFC0F9B1A880C92002204330D920F93D4
S1133B400C9A0123ADE78B4641461293002901D01C
S1133B5001F090F8B84B1793A30600D5ABE0E30649
S1133B6001D500F007FC630601D400F003FC0F9BB1
S1133B701A880C92002204330D920F93E30700D4A9
S1133B80A9E00C990D9A0B0013431A000223002A92
S1133B9000D186E730201EA90870482568464019E0
S1133BA000781C4348707CE78B464146002901D0CD
S1133BB001F083F8A30601D500F0E9FDE30601D581
S1133BC000F09BFD630601D400F097FD69460F9B4E
S1133BD0098D1A680433079211800F93A3E54B46AD
S1133BE01C430B78D8E512930F9B8B461D1D1B6855
S1133BF016A91A0011930023CB77002A01D100F0F3
S1133C00FBFE5346013301D100F038FE5246002139
S1133C10119804F071FC002801D100F054FF119BAD
S1133C20C31A1A000E93DB43DB171A4016ABDB7F73
S1133C300792984600230F9508949A4613935FE6DB
S1133C400F9A1293136828AD07936B461B7F8B461C
S1133C502B70002316A9CB77130004330F93002392
S1133C6008949846013307930E93002311959A46BE
S1133C7013934BE68B4641461293002900D1F4E599
S1133C8016ABD877F1E563461C430B7884E50B78D3
S1133C906C2B01D100F086FD102214437CE58B4689
S1133CA041461293002901D000F0E8FF634B1793BB
S1133CB0A30600D453E707220F9B07339343013233
S1133CC094469C4462460F921A685B680C920D936A
S1133CD0E30700D555E70C990D9A08001043022319
S1133CE00200DEE68B460F9930220B680C9300230A
S1133CF00D9302331C431EAB1A7048325A700B00EA
S1133D0004330F934D4B129217930C9A0223C8E677
S1133D1001231C430B783FE50F9B1A1D1B680B9373
S1133D20002B00DA42E50B780F9235E50B7800287A
S1133D3000D031E50122203090462DE58B461293C8
S1133D40A30600D4EDE607220F9B07339343013209
S1133D5094469C4462460F921A685B6811001A00EC
S1133D60080010430C910D920123020099E68B4642
S1133D701293A30600D483E607220F9B07339343D1
S1133D80013294469C4462460F921A685B681100A3
S1133D901A00080010430C910D920023020080E6E3
S1133DA08B4641461293002901D000F07FFF129BFD
S1133DB0002B00D10BE528AD2B70002316AAD37776
S1133DC008944EE7BC684346002B0FD016AA1F2365
S1133DD0944663443360012373607B680134013388
S1133DE0BC607B60072B00DDB3E108364B46002B3B
S1133DF00CD01EAB3360022373607B680234013342
S1133E00BC607B60072B00DDAFE10836109B802B84
S1133E1000D120E153460E9A9D1A002D3CDD084A3C
S1133E207B689146102D2CDD102221009246099CBE
S1133E3032002E004D4609E0B0B80000C4B80000BE
S1133E40F4B80000103E0832102E16DD5046103132
S1133E50013315605060B9607B60072BF2DD3A00D6
S1133E600699200005F04EF9002800D0B7E4103E72
S1133E70B9687B6832AA102EE8DCA9460C0035002C
S1133E8016004A466419013332607560BC607B6079
S1133E90072B00DD51E10836089BDB0500D5B6E0B1
S1133EA0119B33600E9B9C4673607B6864440133B2
S1133EB0BC607B60072B00DD9DE00836089B5B0738
S1133EC041D50B9B079A9D1A002D3CDDC44A7B68A3
S1133ED09046102D26DD102221009146099C3200C7
S1133EE02E00069D03E0103E0832102E17DDBC485C
S1133EF010311060484601335060B9607B60072B75
S1133F00F1DD3A002900200005F0FCF8002800D07B
S1133F1065E4103EB9687B6832AA102EE7DC3500F0
S1133F200C00160042466419013324C6BC607B6051
S1133F30072B08DD3A000699099805F0E3F80028F4
S1133F4000D04CE4BC680B9B07998B4200DA0B0051
S1133F500A9A94469C4463460A93002C00D0D6E007
S1133F60002332AE7B60FFF7DEFB149B012B00DCE9
S1133F70AEE0119B01343360012373607B68BC6045
S1133F8001337B60072B00DDDFE20836199A013329
S1133F903260189A9846944664447260BC607B60B0
S1133FA0072B00DDDEE2083600220023169815995F
S1133FB005F04AFC002800D0A4E1119D149B0135B2
S1133FC0013B35607360E41801239C46E04443469A
S1133FD0BC607B60072B00DD8BE0083621AB3360CF
S1133FE01A9B9C467360434664440133BC607B6007
S1133FF0072B00DC61E73A000699099805F082F87E
S1134000002801D0FFF7EBFBBC6832AE56E7129BE9
S1134010652BAADD002200231698159905F014FCDF
S1134020002800D1E2E06F4B013433600123736058
S11340307B68BC6001337B60072B00DD66E30836D8
S11340401F9B149A934200DAA4E1089BDB0700D576
S1134050A0E1BC6832E70B9B079A9D1A002D00DC97
S1134060D8E6614A7B689146102D25DD1022210097
S11340709046099C32004E4603E0103D0832102D54
S113408017DD40461031013316605060B9607B6023
S1134090072BF2DD3A000699200005F033F80028DA
S11340A001D0FFF79CFB103DB9687B6832AA102D44
S11340B0E7DCB1460C0016004A466419013332604D
S11340C07560BC607B60072B00DD7EE20836A1E6EC
S11340D00123089A134200D04BE773607B68119A5E
S11340E0013301343260BC6098467B60072B00DCEE
S11340F073E73A000699099805F004F8002801D0FE
S1134100FFF76DFB7B68BC68984632AE66E73A0001
S11341100699099804F0F6FF002800D120E7FFF77C
S11341205EFB089C012B00D184E1022B29D1089469
S1134130002300240C930D94C5E43A0006990998D1
S113414004F0E0FF002801D0FFF749FBBC6832AE61
S1134150A2E63A000699099804F0D4FF002801D099
S1134160FFF73DFBBC6832AE40E63A000699099879
S113417004F0C8FF002801D0FFF731FBBC6832AE61
S113418044E60894002300240C930D940C980D9994
S11341905B4632AA07939146B34600E0A1464A071C
S11341A094464B4665465C1EC6080723CA08354339
S11341B011002A0003403033237028000A43EDD154
S11341C00C900D9107995E468B4608994A461194C6
S11341D0C90700D53DE132AB1B1B0E93FFF788FBEB
S11341E0E4B80000E0B80000F4B800001F9800280C
S11341F000DC96E2139A1499130090468B4200DD7A
S113420088464346002B0CDD119B444433604346EF
S113421073607B68BC6001337B60072B00DDB7E310
S113422008364346DB434246DB171340139AD31A3E
S11342309846002B00DC28E1102B01DC00F0E7FCA1
S1134240CF4A2100914610227B689246099D320094
S11342504C46464604E00832103E102E00DC04E1D1
S113426050461031013314605060B9607B60072BF5
S1134270F1DD3A000699280004F044FF002801D03B
S1134280FFF7ADFAB9687B6832AAE5E70D9B002B0E
S113429000D1CAE00C9C0D9D32ABB1461E0020003B
S11342A029000A22002305F0FDFA013E3032327063
S11342B00023200029000A2205F0F4FA0300040078
S11342C00D000B43EBD1320032AB9B1A11960C94C8
S11342D00D954E460E93FFF70BFB00230E9332AB66
S11342E01193FFF705FB3A000699099804F00AFFB9
S11342F0002801D0FFF773FA16ABDB7FBC68984641
S113430032AE60E5149B5D1E002D00DC66E69C4B1E
S11343109946102D29DD102332009A462E002100E3
S11343204346099C4D4603E0103E0832102E17DD2B
S113433050461031013315605060B9607B60072B23
S1134340F2DD3A000699200004F0DCFE002801D0DA
S1134350FFF745FA103EB9687B6832AA102EE7DCF5
S1134360A9460C003500984616004B46756033602C
S1134370641929E60F9B1A68FFF7FBFB1368079380
S1134380FFF782FA0F9B1A68FFF784FB0F9B1A68EA
S1134390FFF7D1FB199BBA683360189B9C46736086
S11343A07B68624401331400BA607B60072B00DD34
S11343B002E20836149B5D1E002D00DC7EE5704A87
S11343C07B689146102D25DD102221009046099C22
S11343D032002E004D4603E00832103E102E15DD4B
S11343E040461031013315605060B9607B60072B83
S11343F0F2DD3A000699200004F084FE002801D082
S1134400FFF7EDF9B9687B6832AAE6E7A9460C0024
S1134410350016004A466419013332607560BC6089
S11344207B60072B00DC48E5E5E50C9B092B00D9F4
S113443030E7089C27220C9B28A930338B54012396
S113444016AA94460E936E33634408941193FFF7AF
S11344504FFA302B00D10BE23023023A137032AB07
S11344609B1A0E931192FFF743FAB046A146160029
S11344700C004A4632604246444401337260BC60D8
S11344807B60072B00DD9CE208361F9B149A934245
S11344904CDB089AD20749D4149A1399D31A521AA6
S11344A090469A4200DD98464246002A0FDD139951
S11344B0119A8C4662443260424672607A6844447F
S11344C00132BC607A60072A00DD86E20836424683
S11344D0D543ED1715405D1B002D00DCEEE4284AA2
S11344E07B689146102D95DD102221009046099C91
S11344F032002E004D4603E00832103E102E85DDBA
S113450040461031013315605060B9607B60072B61
S1134510F2DD3A000699200004F0F4FD002801D0F1
S1134520FFF75DF9B9687B6832AAE6E7199A326049
S1134530189A944672607A6864440132BC607A6066
S1134540072A00DD30E20836A6E73A000699099802
S113455004F0D8FD002801D0FFF741F9BC687B685E
S113456032AE13E53A000699099804F0CBFD002811
S113457001D0FFF734F97B68BC68984632AE13E586
S1134580F4B80000072307329A4301339C4694444D
S113459063460F93536812680D930C92002B01DB52
S11345A0FFF77AF90C980D99002342428B411100D0
S11345B01A002D2316A8C377080010430C910D92FE
S11345C0984602002C3BFFF770F93A0006990998C7
S11345D004F098FD002801D0FFF701F9BC6832AE61
S11345E018E41699159D0A0008002B00290006F00E
S11345F013FF002800D0E6E25346013300D10DE258
S11346002023129A9A430E92472A00D11CE1802358
S11346105B0023430893159B002B00DA21E2169AD2
S11346200793002391461093129B662B00D1FCE163
S1134630462B00D1DBE00E9A0998453A1300594203
S1134640594120AB0D0003931FAB0293022323AA0D
S113465055441B92049200930195079B4A4602F02D
S113466013F8129B1190672B00D039E2119B9846E6
S1134670A844E30700D48BE20023002248460799AC
S113468005F0E2F8434600280AD1239B434507D2AC
S1134690302140465A1C23921970239B9842F9D822
S11346A0119A9B1A14930E9B472B00D1F6E0129B90
S11346B0652B00DC26E2129B662B00D1F4E11F9BE4
S11346C01393149B139A1900914200DDD4E1E3077C
S11346D000D549E2D343DB1711001A406723079240
S11346E00E911293109B002B00D0CFE016ABDB7F12
S11346F0984600239A46FFF703F90F9A0A9913681C
S11347001960130004330F93FFF70DF83A0006996C
S1134710099804F0F7FC002801D0FFF760F832AEE6
S11347208EE4DE4B01343360012373607B68BC602C
S113473001337B60072B7ADC0836002807D1149BF1
S1134740002B04D1089BDB0701D4FFF7B7FB199BAF
S11347503360189B191973607B68B96001337B60FF
S1134760072B00DDF2E132000832002800DACCE148
S113477011980133106014987B6044185060BC6039
S1134780072B00DD37E408321600FFF797FB0F997B
S11347900A9A0B681A60D2175A600B0004330F93FD
S11347A0FEF7C1FF4B4601311C430B78FEF7F4FFC3
S11347B0BB4B1193FFF737F93A000699099804F0B7
S11347C0A1FC002801D0FFF70AF8BC6832AEF1E57D
S11347D04021099803F0DCFB069B1860186100284F
S11347E000D14FE24023069A5361FEF78EFF23ABBC
S11347F01B93049320AB03931FAB02935346019383
S113480003234A4600930998079B01F03DFF554650
S11348101190119B9846129BA844462B00D02BE77D
S1134820119B1B78302B16D01F9B984424E73A0029
S11348300699099804F066FC002801D0FEF7CFFF22
S11348401F98BC6832AE78E75346002B00D0DEE6F2
S113485001339A46DBE6002200234846079904F018
S1134860F3FF0028E0D101235B1B1F93984403E767
S1134870119A32AB9B1A0E93FFF73AF81198FEF790
S1134880F5FE02000E900300FFF7CDF92D2316AAC2
S1134890D377984600239A46FFF735F81F9B139366
S11348A0DA1C02DB9A4500DB0BE7129B023B1293F6
S11348B02C22139B48215D1E16AB9B186A46521886
S11348C012781F951A70002D00DAA4E12D212B23F4
S11348D016AA52181370092D00DC4CE116AA3B23CA
S11348E0944663449A46B146A046564600E02600E4
S11348F028000A21FEF7D6F9741E303121702800F1
S11349000A21FEF7E9F805000928F0DC23004446F3
S1134910B0464E46994603003033D8B24346023B74
S113492018709A4500D8B4E142461B9B4546991A33
S1134930012307315B4201E0E85C013321AAD2186C
S1134940D0708B42F8D116A98C462E224B46624475
S11349509446FB1A634421AA14999B1A9C460A00A4
S113496062441A930E92012900DC45E1189A0E9BC9
S1134970944663441A000E93DB43DB171A4000236A
S113498007921393AEE601235B420A93FEF72DFFD1
S11349903A000699099804F0B5FB002801D0FEF707
S11349A01EFFBC6832AE3CE43A000699099804F054
S11349B0A9FB002801D0FEF712FF1F9BBC6832AE92
S11349C06AE53A000699099804F09CFB002801D096
S11349D0FEF705FFBC6832AE57E53A000699099820
S11349E004F090FB002801D0FEF7F9FE149B1F9AF7
S11349F0BC689B1A32AE6AE553460793062B01D96D
S1134A0006230793079B0F950E93002398469A4617
S1134A101393244B08941193FEF778FF2023129AE2
S1134A209A431A3B0E929A46F1E523AB1B930493E7
S1134A3020AB03931FAB02935346019303234A46CF
S1134A4000930998079B01F01FFE03005344119043
S1134A5098465546E4E62D2316AAD3779846FEF7E2
S1134A60DBFF802212069446169B9946159B6344ED
S1134A7007932D231093D7E5189A149B9446139A01
S1134A8063440E93002A00DCCEE01A00DB43DB17FC
S1134A901A4067230792129324E6C046E0B8000048
S1134AA0A4B80000D8B800001F9B1393002B00DCAF
S1134AB0D5E05246002A00D092E0E20700D58FE00C
S1134AC007930E930EE616ABDB7F0F95984653467D
S1134AD007930E93002308949A461393FEF710FF4E
S1134AE0119B9846129BA844472B00D0C4E5E307CA
S1134AF000D58EE6239B119A9B1A14930E9B472B89
S1134B0000D1CBE61F9B1393D2E64442103000DB66
S1134B10D0E06E481026050003E00832103C102C4B
S1134B2038DD1031013315605660B9607B60072BA6
S1134B30F3DD3A000699099804F0E4FA002801D05C
S1134B40FEF74DFEB9687B6832AAE7E73A0006999A
S1134B50099804F0D7FA002801D0FEF740FE1F9808
S1134B60B9687B6832AA00E6189A139B944663449A
S1134B701A000E938AE72E21302316AA52181370B6
S1134B802B0016AA013130335218137022ABE2E61F
S1134B90239B85E5A94648460919013310605460F2
S1134BA0B96008327B60072B00DCE1E53A00069926
S1134BB0099804F0A7FA002801D0FEF710FEB9689E
S1134BC07B6832AAD4E5159B002B38DB16ABDB7F60
S1134BD09846129B472B2EDC3D4B1193FEF723FF87
S1134BE0189A139B9446634453441A000E93DB4370
S1134BF0DB171A40079275E501232340139300D075
S1134C00B4E60E9AD343DB171A4007926AE52F4A9B
S1134C107B6891462DE40123139A1B399D1A16AA29
S1134C202C335218137056E60E9B139A981A431C91
S1134C301A000E932AE7274B1193FEF7F4FE2D2357
S1134C4016AAD3779846C4E70F9B1A1D1B689A4689
S1134C50002B36DB4B780F925946FEF79DFD5346E9
S1134C60002B01D1E30703D5189B581C0300BBE7B5
S1134C70012325E716ABD877FEF76CFF16ABD87780
S1134C80FFF714F80C23099A13600D3B0A93FEF7FF
S1134C90ACFD16AA2E23944663445CE616ABD87783
S1134CA0FEF785FE16ABD877FEF7DDFD16ABD87799
S1134CB0FFF77DF8054881466DE716ABD877FEF718
S1134CC079FF01235B429A46C4E7C046F4B800006A
S1134CD0A8B80000ACB80000F0B5DE464E46454624
S1134CE05746E0B5C3B0894614001D000F93060073
S1134CF0069003F0BFF8036818001893FEF7B6FC9B
S1134D001790002E04D0B36B0793002B00D1A7E0BB
S1134D104B465B6EDB0778D44B460C21595E8BB255
S1134D209A056ED580229201134209D10A434B465B
S1134D3049469A81496ECC4B0B4049464B6693B227
S1134D401A0767D54A461269002A63D01A221A4004
S1134D500A2A00D188E032AB25930023CB4625AF45
S1134D60BB607B60079414931693159332AE19932A
S1134D701A930A93079C2378002B01D100F09EFD1F
S1134D80252B03D100F09AFD252B03D00134237881
S1134D90002BF9D1079BE51A10D0079B756033608F
S1134DA0BB685B19BB607B6801337B60072B4CDC01
S1134DB008360A9B9C46AC4463460A932378002B2E
S1134DC001D100F099FC631C0793002316AAD37742
S1134DD001225242924600220B9220329146203206
S1134DE063780021002000249446079A0132079238
S1134DF01A00203A582A00D9E7E29C4D9200AA589A
S1134E0097464B46986D03F047F84B460C21595E84
S1134E108BB287E74946069801F00EFB4B46002803
S1134E203AD05B6EDB0705D44B469B899B0501D4C6
S1134E3000F0CFFF01235B420A930A9843B03CBCC5
S1134E4090469946A246AB46F0BD3A0059460698AC
S1134E5004F02AFA002801D000F0CEFC32AEA8E714
S1134E60069802F0D7FC53E74A460E21525E002A08
S1134E7000DA70E74A46526ED20705D49B0503D484
S1134E804B46986D03F00AF82B0022004946069819
S1134E9001F08EFA0A90D0E79B8957E70B9B0F929B
S1134EA05B420B9304231C43079B1B789DE7079BE2
S1134EB001211B782B2098E7079B5A1C1B789046EE
S1134EC02A2B01D101F038FA1A000025303AAA46FB
S1134ED0092A01D901F06DF9250043465446884654
S1134EE08246A1000C1918786400A4180200591C09
S1134EF0303A0B00092AF4D9079103004146504681
S1134F00A2462C0074E71293002901D001F02EFA76
S1134F10574B1993A30601D500F09AFEE30601D579
S1134F2000F09AFD630601D400F096FD0F9B1A88E9
S1134F300C92002204330D920F93E30701D400F086
S1134F4076FD0C990D9A0B0013431A000223002AD4
S1134F5008D030201EA908704825684640190078FA
S1134F601C4348700021884616A8C1775146013178
S1134F7000D1E6E08021200088430990002A00D077
S1134F80E3E05246002A01D000F038FC002B01D0A7
S1134F9000F00CFD012032AB20400E90119308D09C
S1134FA02723302128AAD15416AA944648336344AF
S1134FB0119353460E9A0893924500DA08920023FF
S1134FC013934346002B02D0089B0133089302231A
S1134FD0099A1A40914602D0089B0233089384230D
S1134FE0099A1A40109200D007E20B9B089A9C1A67
S1134FF0002C00DC01E21F49BA687B688846102C4B
S113500021DD310010255E4603E0103C0831102CF0
S113501017DD40461032013308604D60BA607B6092
S1135020072BF2DD3A003100069804F03DF9002820
S113503001D000F0CFFC103CBA687B6832A9102C78
S1135040E7DCB3460E00414674600133A4183160B6
S1135050BC607B60072B01DD00F0AEFC16ABDB7F90
S113506008369846CAE1C046FFDFFFFF04B90000D6
S1135070C4B8000068BA00000022079D303BA8466F
S11350800B921A0008942C005546824640468846E6
S11350901100002293009A18037852008A1819000C
S11350A00134303920000929F4D907945046089C6A
S11350B00B924146AA469BE60F9A1293136820214D
S11350C008936B465B181B7828AD2B70002316A938
S11350D0CB77130004330F930023099498460133CC
S11350E008930E93002311959A4613936FE7129336
S11350F0002901D001F04DF90F9AA30601D500F063
S11351005AFDE30601D500F0ABFC630601D400F0C0
S1135110A7FC0021535E0C930432DB170D930F920E
S1135120002B01DA00F0B2FD0C990D9A08005146EB
S113513016ABDB7F1043984602000123013100D0F7
S113514018E7002A00D15AE30994012B01D100F099
S113515006FC022B00D080E3199C0F20A146B44624
S113516032AB19000C9A0D9B04004D4614402C5D83
S11351701E07150901392E430C701C092300340045
S113518032001C43F0D10C920D9332AB5B1A119197
S113519066460E930DE763461C43079B1B7824E683
S11351A0079B1B786C2B01D100F08CFE102214435A
S11351B01BE6002901D001F0D5F8A30601D500F0C3
S11351C076FEE30600D510E1630600D40DE16946DE
S11351D00F9B098D1A680433089211800F93C9E557
S11351E00F9930220B680C9300230D9302331C4358
S11351F01EAB1A7048325A700B0004330F93C14B24
S1135200129219930C9A0223ACE64B461C43079B5B
S11352101B78EAE512930F9B16A91D1D1B681A0043
S113522011930023CB77002A01D100F001FF5346EC
S1135230013301D100F064FE52460021119803F0BD
S11352405BF9002801D100F078FF119BC31A1A0002
S11352500E93DB43DB171A4016ABDB7F08929846AC
S113526000230F9509949A461393AAE608231C4336
S1135270079B1B78B9E5129310231C43A30601D5A1
S113528000F0A7FCE30600D5EEE3630600D4EBE3ED
S11352900F9B1A880C92002204330D920F930C9AE0
S11352A000235FE6129310231C43A30601D500F0EC
S11352B0BAFCE30600D5DAE3630600D4D7E30F9B18
S11352C01A880C92002204330D920F930C9A012336
S11352D048E61293002901D001F057F88A4B19933C
S11352E018E601231C43079B1B787EE580231C439F
S11352F0079B1B7879E5079B1B78002800D074E591
S11353000121203071E51293002901D001F039F810
S113531007220F9B07339343013294469C44624611
S11353200F921A6816925B6801221593159B169DBD
S11353305B005B0898465242744B2800414606F0D5
S11353406BF8002801D000F0B4FC01226F4B5242EC
S11353502800414604F088FA002801D000F0A9FC96
S1135360002200231698159904F074FA002801D03D
S113537000F055FD16ABDB7F9846129B472B01DDF1
S113538000F0B4FD624B119380239C437D3B089352
S11353900E93002309949A46139312E60F9B1A1D49
S11353A01B680B93002B00DA78E5079B0F921B78A0
S11353B01BE51293002901D000F0CCFF10231C43FD
S11353C09AE6129371E7129358E71293002901D0D9
S11353D000F0D3FF129B002B00D18DE128AD2B7080
S11353E0002316AAD377099478E60F9A0A991368CA
S11353F01960130004330F93BCE4BC684346002BCC
S11354000FD016AA1F2394466344336001237360AC
S11354107B6801340133BC607B60072B00DD03E251
S113542008364B46002B0CD01EAB3360022373604E
S11354307B6802340133BC607B60072B00DDFDE137
S11354400836109B802B00D173E153460E9A9D1AA7
S1135450002D32DD2F4A7B689146102D22DD10226B
S1135460924622005C4603E0103D0836102D17DDFD
S1135470494631605146103201337160BA607B6035
S1135480072BF1DD3A002100069803F00DFF0028F8
S113549000D08AE1103DBA687B6832AE102DE7DC9B
S11354A0A34614004A466419013332607560BC6037
S11354B07B60072B00DDADE10836099BDB0500D5D9
S11354C0BEE0119B33600E9B9C4673607B68644412
S11354D00133BC607B60072B00DDA6E00836099B26
S11354E05B074AD50B9B089A9D1A002D45DD0A4A95
S11354F07B689046102D2FDD1022914622005C46D9
S113550010E0C046C4B80000B0B80000FFFFEF7F51
S1135510A0B8000078BA000068BA0000103D083650
S1135520102D17DDD14910323160494601337160C5
S1135530BA607B60072BF1DD3A002100069803F086
S1135540B3FE002800D030E1103DBA687B6832AE6B
S1135550102DE7DCA346140042466419013324C627
S1135560BC607B60072B08DD3A005946069803F0BF
S11355709BFE002800D03FE1BC680B9B08998B423E
S113558000DA0B000A9A94469C4463460A93002C62
S113559000D029E1002332AE7B60FFF7EBFB149BC4
S11355A0012B00DC03E1119B0134336001237360A0
S11355B07B68BC6001337B60072B00DDEFE20836BB
S11355C0189A01333260179A98469446644472607C
S11355D0BC607B60072B00DD18E308360022002343
S11355E01698159904F030F9002800D0F4E1119DC3
S11355F0149B0135013B35607360E41801239C461C
S1135600E0444346BC607B60072B00DDE0E00836E5
S113561021AB33601A9B9C46736043466444013358
S1135620BC607B60072B00DC58E73A0059460698BB
S113563003F03AFE002800D0DEE0BC6832AE4EE74C
S1135640129B652BABDD002200231698159904F0FC
S1135650FBF8002800D134E1854B01343360012389
S113566073607B68BC6001337B60072B00DDDCE387
S113567008361F9B149A934203DB099BDB0700D473
S1135680B7E3189BBA683360179B9C4673607B68CA
S1135690624401331400BA607B60072B01DD00F023
S11356A019FC0836149B5D1E002D00DC17E7714AB7
S11356B07B689146102D00DCC3E110229046220045
S11356C04C46D94604E00836103D102D00DC7CE33E
S11356D041461032013334607160BA607B60072B3D
S11356E0F1DD3A004946069803F0DEFD00280BD1AF
S11356F0BA687B6832AEE7E7BB68D946002B01D0B5
S113570000F04CFD00237B604B465B6EDB070DD441
S11357104B469B899A0505D55B0601D4FFF78DFBA3
S1135720FFF788FB4B46986D02F0B8FB4B469B890C
S1135730F2E70B9B089A9D1A002D00DC85E64D4A82
S11357407B689146102D24DD1022210090465C4692
S113575032004E4603E0103D0832102D15DD404660
S11357601031013316605060B9607B60072BF2DDA5
S11357703A002100069803F097FD002815D1103D4A
S1135780B9687B6832AA102DE9DCA346B1460C0047
S113579016004A466419013332607560BC607B6050
S11357A0072B00DD63E208364FE6A146ACE7012390
S11357B0099A134200D0F6E673607B68119A0133AC
S11357C001343260BC6098467B60072B00DC1EE726
S11357D03A005946069803F067FD00280CD17B680F
S11357E0BC68984632AE13E73A005946069803F06F
S11357F05BFD002800D1CDE6D94685E7099C012B45
S113580000D148E1022B23D10994002300240C93F6
S11358100D94A1E43A005946069803F045FD00288A
S1135820EAD1BC6832AE48E63A005946069803F01D
S11358303BFD0028E0D1BC6832AEF2E53A0059469F
S1135840069803F031FD0028D6D1BC6832AEF8E5E5
S11358500994002300240C930D940C980D9953463D
S113586032AA91460893B24607E0C04668BA0000DF
S1135870E0B8000078BA0000A1464A0794464B46B7
S113588065465C1EC6080723CA08354311002A0072
S113589003403033237028000A43EDD10C900D915E
S11358A0089956468A4609994A461194C90700D56B
S11358B0E0E032AB1B1B0E93FFF77BFB079CFFF76B
S11358C07DFA1F98002800DCB9E2139A149913009A
S11358D090468B4200DD88464346002B0CDD119B2D
S11358E044443360434673607B68BC6001337B602F
S11358F0072B00DD89E308364346DB434246DB17CA
S11359001340139AD31A9846002B00DCEBE0102BBB
S113591001DC00F0D9FCDC4A7B68914610224D463C
S1135920924622004446D84604E00836103C102C27
S113593000DCBFE051461032013335607160BA605B
S11359407B60072BF1DD3A004146069803F0ACFC7E
S1135950002800D0B6E3BA687B6832AEE6E70D9B58
S1135960002B00D192E00C9C0D9D32ABB1461E0081
S1135970200029000A22002303F094FF013E303264
S113598032700023200029000A2203F08BFF030059
S113599004000D000B43EBD1320032AB9B1A11967D
S11359A00C940D954E460E93FFF703FB00230E93C4
S11359B032AB1193FFF7FDFA3A005946069803F00B
S11359C073FC002800D017E716ABDB7FBC68984651
S11359D032AE13E5B14697E6149B5D1E002D00DC44
S11359E016E6A94B9946102D00DC0AE1102322008B
S11359F09A465C46434604E00836103D102D00DC10
S1135A00FCE0494631605146103201337160BA609E
S1135A107B60072BF0DD3A002100069803F044FC7C
S1135A20002800D0C1E6BA687B6832AEE5E70C997D
S1135A300D9A0800104302230200FFF793FAA346CD
S1135A4014004A466419013332607560BC607B609F
S1135A50072B00DC42E5E8E50F9B1A68FFF768FABC
S1135A6013680893FFF757FB0F9B1A6812E40F9B08
S1135A701A6826E4302B00D13CE23023023A13703A
S1135A8032AB9B1A0E931192FFF793FA0C9B092BDE
S1135A9000D968E7099C27220C9B28A930338B5432
S1135AA0012316AA94460E936E336344099411930A
S1135AB0FFF77FFAC346A946A04614004A4632605F
S1135AC04246444401337260BC607B60072B00DCB7
S1135AD08DE13A005946069803F0E6FB002800D011
S1135AE08AE6BC6832AE1F9B149A934200DB79E1CC
S1135AF0189A3260179A944672607A686444013244
S1135B00BC607A60072A00DD76E10836149A13999E
S1135B10D31A521A90469A4200DD98464246002A09
S1135B200FDD1399119A8C466244326042467260CA
S1135B307A6844440132BC607A60072A00DD89E255
S1135B4008364246D543ED1715405D1B002D00DC99
S1135B50C5E44D4A7B689146102D00DC71E71022A4
S1135B60904622005C4604E00836103D102D00DC0F
S1135B7065E7494631604146103201337160BA60CD
S1135B807B60072BF0DD3A002100069803F08CFBC4
S1135B90002800D009E6BA687B6832AEE5E73A002F
S1135BA05946069803F080FB002800D024E6BC6820
S1135BB07B6832AE04E5072307329A4301339C46DF
S1135BC0944463460F93536812680D930C92FFF745
S1135BD0A7FA07220F9B07339343013294469C4450
S1135BE062460F921A685B6811001A00080010439D
S1135BF00C910D9200230200FFF7B4F9A3469846D6
S1135C0014004B46756033606419F7E43A00594652
S1135C10069803F049FB002800D0EDE57B68BC68DA
S1135C20984632AEDAE407220F9B073393430132DE
S1135C3094469C4462460F921A685B6811001A00ED
S1135C40080010430C910D9201230200FFF78AF91A
S1135C5007220F9B07339343013294469C446246C8
S1135C600F921A685B680C920D93FFF766F93A007D
S1135C705946069803F018FB002800D0BCE5BC6820
S1135C8032AEFFF7E2FBC04678BA00000C980D99DB
S1135C90002342428B4111001A002D2316A8C3771A
S1135CA0080010430C910D92984602002C3BFFF71C
S1135CB05DF91699159D0A0008002B00290005F0CE
S1135CC0ABFB002800D0C6E25346013300D19FE06D
S1135CD02023129A9A430E92472A00D1A1E18023ED
